:020000040800F2
:100000006806002089010008CD0400086304000888
:10001000C904000843020008890900080000000024
:100020000000000000000000000000003908000887
:100030004702000800000000170800082509000812
:10004000A3010008A3010008A3010008A301000800
:10005000A3010008A301000849020008A301000849
:10006000B1020008A3010008A3010008A3010008D1
:10007000A3010008A3010008A3010008A3010008D0
:10008000A3010008A3010008A3010008A3010008C0
:10009000A3010008A3010008A3010008A3010008B0
:1000A000A3010008A3010008A3010008A3010008A0
:1000B000A3010008A3010008A3010008A301000890
:1000C000A3010008A3010008A3010008A301000880
:1000D000A3010008A3010008A3010008A301000870
:1000E0007D020008A3010008A301000800F002F847
:1000F00000F03AF80AA090E8000C82448344AAF188
:100100000107DA4501D100F02FF8AFF2090EBAE885
:100110000F0013F0010F18BFFB1A43F0010318473B
:10012000A40E0000C40E0000103A24BF78C878C1A5
:10013000FAD8520724BF30C830C144BF04680C60ED
:10014000704700000023002400250026103A28BF35
:1001500078C1FBD8520728BF30C148BF0B60704739
:100160001FB51FBD10B510BD00F031F81146FFF7E7
:10017000F7FF00F00BFC00F04FF803B4FFF7F2FFBD
:1001800003BC00F057F800000948804709480047C1
:10019000FEE7FEE7FEE7FEE7FEE7FEE7FEE7FEE737
:1001A000FEE7FEE704480549054A064B7047000094
:1001B00029090008ED0000086800002068060020FA
:1001C000680200206802002070477047704775463B
:1001D00000F02CF8AE4605006946534620F00700B3
:1001E000854618B020B5FFF7DDFFBDE820404FF091
:1001F00000064FF000074FF000084FF0000B21F011
:100200000701AC46ACE8C009ACE8C009ACE8C009DD
:10021000ACE8C0098D46704710B50446AFF30080C6
:100220002046BDE81040FFF7A8BF00000048704717
:100230000800002001491820ABBEFEE7260002009E
:10024000704700BFFEE7704710B5012000F050F87E
:1002500001280AD10121074800F0F3F828B906481F
:100260000088401E00B204490880012000F03AF8DE
:1002700010BD0000000801400200002010B54FF43E
:10028000006000F035F801280ED108480088401CB5
:100290000649088008460088032801DD01200880FF
:1002A0004FF4006000F01EF810BD000000000020B8
:1002B00010B5042000F01CF801280AD104210748D9
:1002C00000F0BFF828B906480088401C00B2044975
:1002D0000880042000F006F810BD0000000801406E
:1002E000020000200149086070470000140401402A
:1002F000014600200022074B1B6803EA0102054B60
:1003000014331B680B4013B10AB1012000E0002038
:1003100070470000000401400349B1F900000021CA
:10032000014A118070470000020000202DE9F041D1
:10033000024600250026002000230024002791F813
:1003400003C00CF00F0591F803C00CF0100CBCF1C9
:10035000000F03D091F802C04CEA050591F800C0E7
:10036000BCF1000F31D0146800202BE04FF0010CDD
:100370000CFA00F3B1F800C00CEA03069E4220D14B
:1003800083004FF00F0C0CFA03F7BC4305FA03FC93
:100390004CEA040491F803C0BCF1280F06D14FF0D9
:1003A000010C0CFA00FCC2F814C00AE091F803C07A
:1003B000BCF1480F05D14FF0010C0CFA00FCC2F85B
:1003C00010C0401C0828D1D31460B1F800C0BCF1A3
:1003D000FF0F34DD546800202EE000F1080C4FF0D0
:1003E000010808FA0CF3B1F800C00CEA03069E42BB
:1003F00021D183004FF00F0C0CFA03F7BC4305FA30
:1004000003FC4CEA040491F803C0BCF1280F05D1A9
:1004100000F1080C08FA0CF8C2F8148091F803C037
:10042000BCF1480F07D100F1080C4FF0010808FAA1
:100430000CF8C2F81080401C0828CED35460BDE8E8
:10044000F0810246002093680B400BB1012000E0D0
:1004500000207047016170470AB1016100E041610D
:10046000704700BFFEE7000008B50121082000F03A
:10047000D3F948208DF8030003208DF802004FF4D3
:100480008050ADF8000069460148FFF74FFF08BDF6
:10049000000C014008B50121042000F0BDF9102036
:1004A0008DF8030003208DF802000B20ADF800004A
:1004B00069460448FFF73AFF0B210248FFF7CAFFDD
:1004C00008BD00000008014000BFFEE7704770B59E
:1004D00000240EE00021204600F0E9F8002504E0A9
:1004E000002000F088F9681CC5B2802DF8DB601C84
:1004F000C4B2082CEEDB70BD08B50121082000F065
:100500008BF914208DF8030003208DF802002020C1
:10051000ADF8000069460A48FFF708FF4020ADF833
:10052000000069460648FFF701FF01222021044828
:10053000FFF792FF012240210148FFF78DFF08BD20
:10054000000C014070B50546002413E080202041D6
:1005500000EA050240210E48FFF77EFF012220211C
:100560000B48FFF779FF002220210948FFF774FFAD
:10057000601CC4B2082CE9DB012220210448FFF7EB
:100580006BFF002220210248FFF766FF70BD0000CC
:10059000000C014010B5012240210948FFF75CFF23
:1005A000012220210648FFF757FF0022402104487E
:1005B000FFF752FF002220210148FFF74DFF10BD39
:1005C000000C014010B5002240210748FFF744FF0E
:1005D000012220210448FFF73FFF01224021024869
:1005E000FFF73AFF10BD0000000C014070B5002479
:1005F00006E0002500E06D1CB5F57A7FFBD3641C96
:10060000B4F57A7FF5D3FFF777FFAE2000F0E3F87B
:10061000D52000F0E0F8802000F0DDF8A82000F000
:10062000DAF83F2000F0D7F8D32000F0D4F800200B
:1006300000F0D1F8402000F0CEF8A12000F0CBF877
:10064000C82000F0C8F8DA2000F0C5F8122000F049
:10065000C2F8812000F0BFF8CF2000F0BCF8D9200C
:1006600000F0B9F8F12000F0B6F8DB2000F0B3F8A4
:10067000302000F0B0F8A42000F0ADF8A62000F083
:10068000AAF88D2000F0A7F8142000F0A4F8AF20FD
:1006900000F0A1F8FFF71BFF70BD10B50246012066
:1006A00000E050430B1EA1F10101FAD110BD70B55D
:1006B00005460C46A01CC4B245F0B00000F08BF813
:1006C000102141EA141000F086F804F00F0000F049
:1006D00082F870BD2DE9F04105460E461746721EA0
:1006E000D206110E6A1E5206100EFFF7E0FF00241C
:1006F00009E0A7F12001134A02EB0111085D00F0A7
:100700007AF8601CC4B2082CF3DB721ED206110EFC
:100710006A1E012303EB4202D0B2FFF7C8FF002498
:100720000BE0A7F12001074A02EB011204F10801D6
:10073000505C00F060F8601CC4B2082CF1DBBDE82E
:10074000F0810000D40900082DE9F0478146884671
:1007500015461E46002D06DB2B2241464846FFF774
:10076000B9FF2F4605E02D2241464846FFF7B2FF6C
:100770006F42002417E0301B411E0A20FFF78DFF57
:10078000B7FBF0F00A21B0FBF1F201FB120000F11F
:10079000300A08EB0400401CC1B252464846FFF73D
:1007A00099FF601CC4B2B442E5DBBDE8F0872DE9D7
:1007B000F04107460E461546002407E02A5D301931
:1007C000C1B23846FFF786FF601CC4B2285D00281E
:1007D000F4D1BDE8F08110B50446FFF7DBFE7820C8
:1007E000FFF7B0FE0020FFF7ADFE2046FFF7AAFEA0
:1007F000FFF7E8FE10BD10B50446FFF7CBFE7820EA
:10080000FFF7A0FE4020FFF79DFE2046FFF79AFE6F
:10081000FFF7D8FE10BD704729B1064A926902431E
:10082000044B9A6104E0034A92698243014B9A6146
:100830007047000000100240704710B500F002F849
:1008400010BD00000CB500200190009033480068F6
:1008500040F480303149086000BF3048006800F43F
:10086000003000900198401C0190009818B9019840
:10087000B0F5A06FF1D12948006800F4003010B144
:100880000120009001E0002000900098012843D151
:100890002348006840F010002149086008460068BD
:1008A00020F0030008600846006840F0020008607D
:1008B0001A48406819494860084640684860084638
:1008C000406840F4806048600846406820F47C102E
:1008D00048600846406840F4E810486008460068F0
:1008E00040F08070086000BF0C48006800F00070A5
:1008F0000028F9D00948406820F003000749486003
:100900000846406840F00200486000BF0348406865
:1009100000F00C000828F9D10CBD000000100240C6
:10092000002002407047000010B51348006840F0F6
:1009300001001149086008464068104908400E4906
:100940004860084600680E4908400B4908600846A0
:10095000006820F4802008600846406820F4FE000B
:1009600048604FF41F008860FFF767FF4FF000609A
:100970000449086010BD0000001002400000FFF8AC
:10098000FFFFF6FE08ED00E000BFFEE7FFF782FD87
:10099000FFF72CFEFFF768FD0BA201210846FFF7C9
:1009A00006FF0FE0FFF7B8FC09490988084400B2C8
:1009B0000749088005230846B0F9002006210120D8
:1009C000FFF7C2FEEEE700004E756D3A0000000032
:1009D00004000020000000000000000000000000F3
:1009E00000000000000000F80000000000000033DC
:1009F0003000000000100C06100C06000000000083
:100A00000000000040C07840C0784000043F04046B
:100A10003F040400007088FC08300000001820FF2C
:100A2000211E0000F008F000E018000000211C0367
:100A30001E211E0000F00888700000001E212324E3
:100A40001927211010160E00000000000000000001
:100A500000000000000000E0180402000000000791
:100A60001820400000020418E00000000040201898
:100A700007000000404080F0804040000202010F6B
:100A800001020200000000F0000000000101011F4F
:100A900001010100000000000000000080B07000B3
:100AA0000000000000000000000000000001010143
:100AB00001010101000000000000000000303000D2
:100AC00000000000000000008060180400601806AC
:100AD0000100000000E010080810E000000F1020E6
:100AE00020100F00001010F8000000000020203F30
:100AF00020200000007008080888700000302824BA
:100B0000222130000030088888483000001820205A
:100B100020110E000000C02010F80000000704247F
:100B2000243F240000F808888808080000192120C4
:100B300020110E0000E0108888180000000F11201E
:100B400020110E0000380808C83808000000003FD7
:100B5000000000000070880808887000001C222136
:100B600021221C0000E010080810E00000003122E3
:100B700022110F00000000C0C00000000000003083
:100B800030000000000000800000000000008060D5
:100B90000000000000008040201008000001020456
:100BA000081020004040404040404000040404043D
:100BB00004040400000810204080000000201008F9
:100BC00004020100007048080808F000000000302E
:100BD00036010000C030C828E810E00007182724BC
:100BE00023140B000000C038E0000000203C23026A
:100BF0000227382008F8888888700000203F2020CD
:100C000020110E00C03008080808380007182020FE
:100C10002010080008F808080810E000203F2020F5
:100C200020100F0008F88888E8081000203F2020D6
:100C30002320180008F88888E8081000203F2000CA
:100C400003000000C0300808083800000718202002
:100C5000221E020008F808000008F808203F2101C1
:100C600001213F20000808F8080800000020203F6C
:100C70002020000000000808F8080800C0808080DC
:100C80007F00000008F888C028180800203F2001D5
:100C90002638200008F8080000000000203F20202F
:100CA0002020300008F8F800F8F80800203F003F46
:100CB000003F200008F830C00008F808203F20005E
:100CC00007183F00E01008080810E0000F1020206F
:100CD00020100F0008F808080808F000203F210144
:100CE00001010000E01008080810E0000F1824249B
:100CF00038504F0008F8888888887000203F20000E
:100D0000030C3020007088080808380000382021C3
:100D100021221C00180808F8080818000000203FCD
:100D20002000000008F808000008F808001F202034
:100D300020201F000878880000C838080000073805
:100D40000E010000F80800F80008F800033C070056
:100D5000073C0300081868808068180820302C03BE
:100D6000032C30200838C800C83808000000203F95
:100D70002000000010080808C83808002038262184
:100D800020201800000000FE020202000000007F88
:100D900040404000000C30C0000000000000000196
:100DA0000638C00000020202FE0000000040404081
:100DB0007F000000000004020202040000000000A6
:100DC0000000000000000000000000008080808023
:100DD000808080800002020400000000000000000B
:100DE00000000000000080808080000000192422A4
:100DF00022223F2008F8008080000000003F1120E0
:100E000020110E000000008080800000000E1120E4
:100E100020201100000000808088F800000E1120C2
:100E200020103F200000808080800000001F2222D0
:100E300022221300008080F0888888180020203F3C
:100E4000202000000000808080808000006B94944F
:100E50009493600008F8008080800000203F21000B
:100E600000203F2000809898000000000020203FD4
:100E700020200000000000809898000000C08080C2
:100E8000807F000008F8000080808000203F24025E
:100E90002D302000000808F8000000000020203F4E
:100EA000202000008080808080808000203F200003
:100EB0003F20003F8080008080800000203F210094
:100EC00000203F200000808080800000001F202044
:100ED00020201F00808000808000000080FFA12073
:100EE00020110E000000008080808000000E112084
:100EF00020A0FF80808080008080800020203F2113
:100F000020000100000080808080800000332424C5
:100F100024241900008080E0808000000000001F71
:100F2000202000008080000000808000001F202022
:100F300020103F20808080000080808000010E30E3
:100F40000806010080800080008080800F300C0344
:100F50000C300F0000808000808080000020312E47
:100F60000E312000808080000080808080818E7023
:100F70001806010000808080808080000021302CD5
:100F80002221300000000000807C020200000000EE
:100F9000003F404000000000FF0000000000000093
:100FA000FF0000000002027C800000000040403F83
:100FB000000000000006010102020404000000001D
:100FC00000000000E40F00080000002008000000FE
:100FD00028010008EC0F000808000020600600004F
:0C0FE000440100080000000000000000B8
:04000005080000ED02
:00000001FF
